:020000040800F2
:10000000C007002089010008F71C0008CB1A00086F
:10001000F51C00088F020008952100080000000070
:10002000000000000000000000000000FB1C0008B1
:100030009102000800000000F91C0008FD1C0008E7
:10004000A3010008A3010008A3010008A301000800
:10005000A3010008A3010008A3010008A3010008F0
:10006000A3010008A3010008A3010008A3010008E0
:10007000A3010008A3010008A3010008A3010008D0
:10008000A3010008A3010008A3010008A3010008C0
:10009000A3010008A3010008A3010008A3010008B0
:1000A000A3010008611D0008A3010008A3010008C6
:1000B000A3010008A3010008A3010008A301000890
:1000C000A3010008A3010008A3010008A301000880
:1000D000A301000889210008A3010008A30100086A
:1000E00093020008A3010008A301000800F002F831
:1000F00000F03AF80AA090E8000C82448344AAF188
:100100000107DA4501D100F02FF8AFF2090EBAE885
:100110000F0013F0010F18BFFB1A43F0010318473B
:10012000B0350000D0350000103A24BF78C878C13F
:10013000FAD8520724BF30C830C144BF04680C60ED
:10014000704700000023002400250026103A28BF35
:1001500078C1FBD8520728BF30C148BF0B60704739
:100160001FB51FBD10B510BD00F058F81146FFF7C0
:10017000F7FF02F031F800F076F803B4FFF7F2FF72
:1001800003BC00F07DF8000009488047094800479B
:10019000FEE7FEE7FEE7FEE7FEE7FEE7FEE7FEE737
:1001A000FEE7FEE704480549054A064B7047000094
:1001B0005F1D0008ED000008C0010020C0070020FE
:1001C000C0030020C00300204FF0000200B513461A
:1001D00094469646203922BFA0E80C50A0E80C5067
:1001E000B1F12001BFF4F7AF090728BFA0E80C5018
:1001F00048BF0CC05DF804EB890028BF40F8042B11
:1002000008BF704748BF20F8022B11F0804F18BF7D
:1002100000F8012B7047704770477047754600F033
:100220002BF8AE4605006946534620F00700854688
:1002300018B020B5FFF7B6FFBDE820404FF000062C
:100240004FF000074FF000084FF0000B21F00701BE
:10025000AC46ACE8C009ACE8C009ACE8C009ACE801
:10026000C0098D46704710B50446AFF300802046A4
:10027000BDE81040FFF781BF0048704760010020D3
:1002800001491820ABBEFEE7260002007047FEE7DA
:1002900070474FF4005000F095B810B590F8211059
:1002A0000022022905D00421816380F8202001204A
:1002B00010BD01680B6823F00E030B6001680B682A
:1002C00023F001030B6090F84030C46B012101FA68
:1002D00003F3636080F8211080F82020104610BDE1
:1002E00010B590F821100024022903D00421816365
:1002F00001243DE001680A6822F00E020A600168EC
:100300000A6822F001020A601A4A0168914201D18A
:10031000012121E0174A1432914201D110211BE042
:10032000144A2832914201D1891515E0114A3C3214
:10033000914201D189140FE00E4A5032914202D10C
:100340004FF4803108E00B4A6432914202D14FF4FD
:10035000801101E04FF08071064A083A5160012196
:1003600080F82110002180F82010416B01B18847EE
:10037000204610BD0800024070B5044600F028F980
:100380000546601C02D004480078044400F020F9BF
:10039000401BA042FAD370BD70000020B0F5005F92
:1003A00003D107480178022901D000BF704700211E
:1003B0008162C0E91A11C0E9121101707047000092
:1003C00000000020044910B50A68024202D008600B
:1003D000FFF7E4FF10BD0000140401402DE9F84FC1
:1003E000DFF8B891002409F1040A0AF1040B23464E
:1003F0000F270BF1040EC9E00125A5402A40AA42AF
:100400007DD1674ED1F804C0ACEB0608B44532D0BC
:1004100014DCBCF1030F3AD009DCBCF1000F2AD088
:10042000BCF1010F1CD0BCF1020F31D11DE0BCF1B9
:10043000110F17D0BCF1120F2AD119E0B8F5881F9F
:1004400019D006DCB8F5803F15D0B8F5801F1FD154
:1004500011E0B8F5001F0ED0B8F5041F18D10AE05E
:10046000CB6815E0CB681B1D12E0CB6808330FE0AA
:10047000CB680C330CE08B682BB1012B4FF00803D9
:1004800003D0456104E0042302E0056100E000239D
:10049000FF2A01D8064601E000F104064FEA840570
:1004A00001D9A5F12005D6F8008007FA05FC28EA55
:1004B0000C0803FA05F548EA0508C6F800804D68FF
:1004C000ED0062D5374DAE6946F00106AE61AD690B
:1004D00024F0030605F001050095334D06EB050CED
:1004E000DCF80850A607360F07FA06F825EA0805D3
:1004F000DFF8B880404503D14FF0000817E044E032
:10050000DFF8AC80404502D14FF001080FE0DFF882
:10051000A480404502D14FF0020808E0DFF898803F
:10052000404502D14FF0030801E04FF0040808FAFB
:1005300006F848EA0508CCF808804D68D9F800604C
:10054000ED034D4601D5164300E096432E604D68FD
:10055000DAF80060AD03554601D5164300E0964336
:100560002E604D68DBF80060ED025D4601D5164354
:1005700000E096432E604D68DEF80060AD027546DF
:1005800001D5164300E096432E60641C0D682A4690
:10059000E5407FF431AFBDE8F88F00000004014072
:1005A000000011100010024000000140000801404E
:1005B000000C014000100140001401408068084018
:1005C00000D0012070470AB1016170470904FBE7C0
:1005D0000148806870470000700000200248816870
:1005E000027811448160704770000020074810B500
:1005F000016841F010010160032000F075F80F2040
:1006000000F006F800F024F8002010BD00200240A1
:1006100070B50D4D04464FF47A712878B1FBF0F0B7
:100620000A490968B1FBF0F000F0ECFA48B9102C67
:1006300007D200222146501E00F036F800206C60E0
:1006400070BD012070BD0000700000207C00002003
:100650000C4808B5816941F001018161816901F0AF
:1006600001010091C16941F08051C161C06900F090
:10067000805000900448416821F0E06141F0007131
:10068000416008BD0010024000000140002809DB65
:1006900000F01F02012191404009800000F1E0209C
:1006A000C0F8001170470000F0B40E4B1B680C46F8
:1006B000C3F30223C3F10705042D00D90425191D36
:1006C000072901D2002300E0DB1E012606FA05F10E
:1006D000491E214099409E40761E16403143F0BC91
:1006E00001F06ABD0CED00E0064900F00702086861
:1006F0004FF6FF03184040EA0220034A1043086007
:10070000704700000CED00E00000FA052DE9F0470D
:100710000F46050061D0434E306800F00700B84234
:1007200009D2306820F0070038433060306800F0AC
:100730000700B84251D128683B4C810712D54007C9
:1007400003D5606840F4E06060602878000703D556
:10075000606840F4605060606068A96820F0F00054
:10076000084360602878C00728D06868012810D046
:100770002168022810D0890700292EDA616821F04B
:10078000030101436160FFF723FF804641F288398E
:100790000DE021688903EFE78901EDE7FFF718FF16
:1007A000A0EB0801494502D90320BDE8F087606845
:1007B000696800F00C00B0EB810FEFD1306800F0F9
:1007C0000700B8420BD9306820F00700384330608A
:1007D000306800F00700B84201D00120E5E7287832
:1007E000400705D56068E96820F4E0600843606070
:1007F0002878000706D56068296920F4605040EA2F
:10080000C100606000F038F86168084AC1F3031164
:10081000515CC8400649086006480068FFF7F8FECA
:100820000020C2E70020024000100240B636000857
:100830007C000020740000200448054900684968D5
:10084000044AC1F30221515CC84070477C0000207B
:1008500000100240C636000804480549006849688F
:10086000044AC1F3C221515CC84070477C0000209B
:1008700000100240C636000812A185B00FC98DE8ED
:100880000F0014A0144A006804905168134801F046
:100890000C03042B10D0082B0ED1C1F38343C903E2
:1008A0001DF803000AD5516804AAC1F34041515C08
:1008B0000A4A5043B0FBF1F005B07047084948437D
:1008C000FAE7000002030405060708090A0B0C0DED
:1008D0000E0F1010010200000010024000127A00FA
:1008E00000093D002DE9F84F040070D02078C04D7C
:1008F000C00749D06868C0F38100012807D0686844
:10090000C0F38100022809D16868C00306D52868B1
:10091000800339D560680028E7D035E06068B0F51D
:10092000803F0BD010B1B0F5A02F11D0286820F473
:1009300080302860286820F4802002E0286840F495
:1009400080302860606890B1FFF742FE06460AE0FA
:10095000286840F480202860F0E700BFFFF738FEE9
:10096000801B642873D828688003F7D50CE0FFF754
:100970002FFE064605E000BFFFF72AFE801B642815
:10098000F0D828688003F7D420789A4E80074FF07B
:1009900001094FF0000839D5686810F00C0F07D036
:1009A0006868C0F38100022809D16868C00306D4D2
:1009B0002868800714D52069012808D110E0206933
:1009C000B0B1C6F80090FFF703FE074605E00AE164
:1009D000FFF7FEFDC01B0228C4D828688007F7D5A2
:1009E0002868616920F0F80040EAC10028600DE045
:1009F000C6F80080FFF7ECFD074604E0FFF7E8FDCE
:100A0000C01B022823D828688007F7D42078000765
:100A10002CD57948A169D9B1C0F80090FFF7D8FD6D
:100A2000074604E0FFF7D4FDC01B02280FD8686A10
:100A30008007F7D571484FF4FA510068B0FBF1F028
:100A4000009000BF0098411E0091FAD20EE080E0B5
:100A5000C0F80080FFF7BCFD074604E0FFF7B8FDD3
:100A6000C01B022875D8686A8007F7D42078400731
:100A700060D5E8690027C00008D4E86940F08050DC
:100A8000E861E869012700F0805000905C48016847
:100A9000C90513D40168834641F480710160FFF7F2
:100AA00097FD824606E000BFFFF792FDA0EB0A002B
:100AB00064284ED8DBF80000C005F5D5E0680128B1
:100AC0000AD008B1052813D0286A20F00100286256
:100AD000286A20F0040002E0286A40F00100286241
:100AE000E06841F2883B98B1FFF772FD82460BE067
:100AF000286A40F004002862EEE700BFFFF768FDB7
:100B0000A0EB0A0159455AD8286A8007F6D50CE0AF
:100B1000FFF75EFD824605E0FFF75AFDA0EB0A01F4
:100B200059454CD8286A8007F6D41FB1E86920F0EF
:100B30008050E861E06988B36968C1F381010229E6
:100B400044D00228C6F8608004D0FFF741FD044677
:100B500038E034E0FFF73CFD074604E0FFF738FDDE
:100B6000C01B02282BD828688001F7D4206AB0F572
:100B7000803F05D16868A16820F4003008436860B0
:100B8000D4E908010843696821F4741108436860D6
:100B9000C6F86090FFF71CFD044606E025E000BFA4
:100BA000FFF716FD001B022809D828688001F7D539
:100BB0001BE000BFFFF70CFD001B022802D9032039
:100BC000BDE8F88F28688001F4D40EE00128F7D042
:100BD0006868226A00F48031914204D1616A00F4AD
:100BE0007010884201D00120EAE70020E8E7000009
:100BF0000010024000004242800442427C0000207B
:100C00000070004010B5401EB0F1807F01D301207C
:100C100010BD4FF0E02460610F21601701F0CCFAA5
:100C20000020A06107202061002010BD70477047A0
:100C300070B590F83C20012A26D0012480F83C4071
:100C4000022280F83D2003685A689D6822F07006F1
:100C50000A6832435A600D4B02689A4208D0B2F1DA
:100C6000804F05D00A4B9A4202D00A4B9A4204D1D7
:100C7000496825F080031943916080F83D400021C8
:100C800080F83C10084670BD022070BD002C014069
:100C9000000400400008004010B5040003D094F8A0
:100CA0003D0010B107E0012010BD002084F83C0099
:100CB000204600F01FF8022084F83D00211D206826
:100CC00001F054F8012084F8460084F83E0084F8CE
:100CD0003F0084F8400084F8410084F8420084F822
:100CE000430084F8440084F8450084F83D00002067
:100CF00010BD000008B5114A01681148914211D198
:100D0000816941F4006181618069002200F4006022
:100D1000009011461920FFF7C7FCBDE808401920D4
:100D2000FFF7B4BCB1F1804F07D1C16941F00101B7
:100D3000C161C06900F00100009008BD002C0140B5
:100D40000010024090F83D10012901D001207047A9
:100D5000022180F83D100168CA6842F00102CA60B1
:100D600000680B49884208D0B0F1804F05D009498E
:100D7000884202D00849884204D1816801F0070105
:100D8000062903D0016841F001010160002070478D
:100D9000002C0140000400400008004070B50446EB
:100DA00090F83C00012817D0012584F83C5002201F
:100DB00084F83D002068826822F0770222F47F42A6
:100DC00082600868502830D00DDC20284DD005DC2A
:100DD00098B310283BD148E0022070BD302844D0A1
:100DE000402834D139E0602828D0702806D0B0F5EA
:100DF000805F2CD0B0F5005F29D10AE0CB68D1E943
:100E00000121206800F0F5FF2068816841F077013A
:100E100009E0CB68D1E90121206800F0EAFF2068F1
:100E2000816841F48041816011E0CA6849682068A6
:100E300001F094F85021206807E016E0CA6849687C
:100E4000206801F09CF86021206800F0DCFF84F845
:100E50003D50002084F83C0070BDCA684968206895
:100E600001F07CF840212068EFE722680146104637
:100E7000EBE7704770B50446006801694FF0000564
:100E8000C943890715D4C168C943890711D4E91E2C
:100E9000016101202077206880698007204602D008
:100EA000FFF7E7FF04E000F0BDF8204600F04CF942
:100EB000257720680169C943490717D4C168C94328
:100EC000490713D46FF004010161022020772068E4
:100ED000806910F4407F204602D0FFF7CAFF04E08B
:100EE00000F0A0F8204600F02FF92577206801696E
:100EF000C943090716D4C168C943090712D46FF062
:100F000008010161042020772068C069800720461D
:100F100002D0FFF7AEFF04E000F084F8204600F0B6
:100F200013F9257720680169C943C90617D4C16838
:100F3000C943C90613D46FF010010161082020775E
:100F40002068C06910F4407F204602D0FFF791FF6F
:100F500004E000F067F8204600F0F6F825772068F6
:100F60000169C943C90708D1C168C943C90704D188
:100F7000891E0161204600F037F920680169C943E4
:100F8000090609D4C168C943090605D46FF0800178
:100F900001612046FFF74AFE20680169C9434906FE
:100FA00009D4C168C943490605D46FF04001016105
:100FB000204600F031FB20680169C94389060BD443
:100FC000C168C943890607D46FF02001016120463A
:100FD000BDE87040FFF72BBE70BD000000B585B0C6
:100FE000002100910191029103910068B0F1804FBE
:100FF00011D10A48816941F0040181618069694623
:1010000000F0040004900B20009002200190039057
:101010000348FFF7E3F905B000BD000000100240EF
:1010200000080140704770B5044690F83C000D463A
:1010300001280AD0012084F83C0042B1042A18D0CB
:10104000082A2AD00C2A4DD139E0022070BD206830
:1010500000F0E2FE2068816941F0080181612068AA
:10106000816921F004018161206881692A69114345
:1010700011E0206800F0F8FE2068816941F4006109
:1010800081612068816921F48061816120688169C2
:101090002A6941EA0221816124E0206800F010FF02
:1010A0002068C16941F00801C1612068C16921F06F
:1010B0000401C1612068C1692A69114311E02068F7
:1010C00000F02AFF2068C16941F40061C161206815
:1010D000C16921F48061C1612068C1692A6941EA5E
:1010E0000221C161002084F83C0070BD10B50400ED
:1010F00003D094F83D0010B107E0012010BD00209E
:1011000084F83C00204600F01EF8022084F83D00E0
:10111000211D206800F02AFE012084F8460084F892
:101120003E0084F83F0084F8400084F8410084F8D1
:10113000420084F8430084F8440084F8450084F8B1
:101140003D00002010BD70477047000010B50446F8
:10115000022249B104290ED0082913D094F8410085
:10116000012816D0012010BD94F83E000128F9D1C5
:1011700084F83E200FE094F83F000128F2D184F873
:101180003F2008E094F840000128EBD184F840208B
:1011900001E084F841200122206800F01DFE0F4983
:1011A0002068884203D1426C42F4004242642068C5
:1011B000884208D0B0F1804F05D00949884202D05A
:1011C0000849884204D1816801F00701062903D04B
:1011D000016841F001010160002010BD002C0140B8
:1011E00000040040000800402DE9F05F4FF00009C6
:1011F0004FF4004BFE4C0121C4F81090E069824688
:1012000002F01BFA01F084FE0746D4E9165020F0E4
:1012100000468846504601F07BFE2A46334601F0E0
:1012200081FD2A46334601F049FC3A46434601F027
:1012300011FA01F029F92062D4E91A01C4E9140174
:10124000DFF8B0A3002259465046FFF7BCF9D4E9B5
:1012500016010022134601F0F5FB0FD2216AA06AA5
:1012600002F000F90546D4E91A0101F0CEFF294643
:1012700001F07AFE02F06CF9C4E91401D4E9160118
:101280000022134601F018FD0FD2216AA06A01F076
:101290006BFE0546D4E91A0101F0B7FF294601F0BB
:1012A00063FE02F055F9C4E91401D4E91401D4E94C
:1012B0001232C01A61EB020101F060FB21F0004123
:1012C0004FF02042CC4B01F0BDFB03D2D4E9120118
:1012D000C4E91401A06A6062D4E91A01C4E91801E2
:1012E000D4E91223DFF8148342404B404FF081458C
:1012F0004FF07E571A430DD0D4E916010022134651
:1013000001F000FB06D00120607000221021504641
:10131000FFF759F9D4E91310A26C636D101A61EB51
:10132000030101F02BFB21F0004101F0ADF8206139
:10133000D4E916010022134601F0BEFC09D2D4E91B
:101340001410D4E91223891A984102DB2069A842BB
:1013500010DBD4E916010022134601F073FB78D2AA
:10136000D4E91210D4E91423891A984171DB206959
:10137000A8426EDA0146606901F074FF01D220696B
:101380006061D4E916010022134601F095FC08D2F1
:10139000E06901F0BDFDD4E9162301F0C3FCC4E906
:1013A0001601D4E916010022134601F04BFB08D2C6
:1013B000E06901F0ADFDD4E9162301F097F8C4E926
:1013C0001601A06A01F0A4FDD4E9162301F08EF8FD
:1013D00001F05AF8A062B8420ADB394602F042F83E
:1013E000A062D4E91A01401C41F10001C4E91A01CC
:1013F000A06A40450AD3394601F0B6FDA062D4E99F
:101400001A01401E41F1FF31C4E91A01D4E912105A
:10141000D4E91A325B1A824104DBD4E918325B1A30
:10142000824106DBD4E918238A1A70EB03020EDB33
:101430000DDA84F80190C4F82890C4E91A1000204D
:10144000C4E91600012210215046FFF7BCF8AFE0B6
:10145000FFE7D4E91210D4E91A23551A73EB0005FB
:1014600038DAA06901F054FDD4E9162301F0EAFA54
:1014700014D2E06901F04CFDD4E9162301F052FCCE
:10148000C4E9160105460E46A06901F041FD334648
:101490002A4601F011FC66D2A06960E0A06901F063
:1014A00037FDD4E9162301F007FC5CD2E06901F0B6
:1014B0002FFDD4E9162301F019F8C4E916010546F9
:1014C0000E46A06901F024FD2A46334601F0BAFA1F
:1014D00049D2E1E7891A984145DAA06980F00040D5
:1014E00001F016FDD4E9162301F0ACFA15D2E0693B
:1014F00001F00EFDD4E9162301F014FCC4E9160135
:101500000546A0690E4680F0004001F001FD2A4624
:10151000334601F0D1FB26D21EE0A06980F00040E6
:1015200001F0F6FCD4E9162301F0C6FB1BD2E069FA
:1015300001F0EEFCD4E9162300F0D8FFC4E916014F
:101540000546A0690E4680F0004001F0E1FC2A4605
:10155000334601F077FA06D2A06980F0004001F02E
:10156000D7FCC4E91601A06A01F0D2FCD4E9162325
:1015700000F0BCFF00F088FFA062B8420ADB3946E9
:1015800001F070FFA062D4E91A01401C41F1000192
:10159000C4E91A01A06A40450AD3394601F0E4FCC7
:1015A000A062D4E91A01401E41F1FF31C4E91A01D9
:1015B00004F16400236E07C8591A4FF48045904126
:1015C00004DA012229465046FEF7FDFFD4E918212E
:1015D000D4E91A309A1A884104DA00222946504682
:1015E000FEF7F1FFD4E91A10D4E91823514007E0BF
:1015F00000000020000C0140F7C6B03E00008080D3
:101600005840014306D059465046BDE8F05F0122DC
:10161000FEF7D9BFBDE8F09F70477047F8B548495D
:1016200088427DD10068002701684068454E0090DF
:101630000120B070F06A40F2012188427DD906F1A4
:101640003705EC1F2A7823783F484FF400519A421F
:1016500017D16A7863789A4213D1AA78A3789A420C
:101660000FD1EA78E3789A420BD12A7923799A420A
:1016700007D16A7963799A4203D1AA79A3799A4208
:1016800001D0012200E00022FEF79DFF3078C0BBB0
:1016900020786378C0EB0020C217181847EB0201CE
:1016A00001F0B3FDF16801F011FE01F051FFC6E950
:1016B0001201A07801F0B3F90022244B00F0CAFF18
:1016C0004FF06632224B01F0F9F900F0DDFEB06117
:1016D000E078404301F0A3F900221E4B00F0BAFF6E
:1016E00000221D4B01F0EAF900221C4B00F0FEFE27
:1016F00002460B4600201A4900F0ACFF00F0C4FE81
:10170000F0612A7921794FF080408A4200D08163CC
:101710006A7961798A4200D04163AA79A17901E0AE
:101720000CE00AE08A4200D00164306BC6F8370052
:10173000B08EA6F83B0086F83D10F762F8BD0000B9
:101740001C010020000000200010014000E06F405C
:101750006666E63F20C0EF4080843E4100709740BF
:101760000000F03FF8B5026804461068D16853697C
:1017700010F00F0F4FF0000553D003F0010601F4F5
:10178000907737435FD0C20705D0CA0503D5226CD6
:1017900042F001022264420705D5DA0703D0226C29
:1017A00042F002022264820705D5DA0703D0226CD8
:1017B00042F004022264020707D501F020023243FE
:1017C00003D0226C42F008022264226C002A34D03A
:1017D000800604D5880602D5204600F002FC206869
:1017E0004069216CC0F38010090700D430B3204653
:1017F00000F0DFFB2068416949061BD5416921F0F3
:1018000040014161A06BA8B158494163A06BFEF74C
:1018100067FD002811D0A06B416B01B0BDE8F0401E
:10182000084783060FD58B060DD52046BDE8F84046
:1018300000F0D7BB2046FFF7F1FEF8BD2046FFF7CA
:10184000EDFE2564F8BD266B2023012E52D1C6067D
:1018500050D5CE064ED510685068009050694006AD
:101860002AD5A16B086840680004000CEAD0A68D58
:101870008642E7D9E0858869202818D0D06820F40E
:101880008070D0602068416921F0010141612068C9
:10189000416921F04001416184F83E3025632068B0
:1018A000C16821F01001C160A06BFEF7F6FCA08DAD
:1018B000E18D401A81B219E0A08DE18D401A81B20C
:1018C000E08D0028BED00029BCD0D06820F49070F4
:1018D000D0602068426922F00102426184F83E3003
:1018E00025632068C26822F01002C2602046FFF71C
:1018F00094FEF8BD05062BD50D0629D594F83D00BC
:101900002128F6D1A068B0F5805F01D12069B0B17F
:10191000206A411C2162216800784860E08C401EEA
:101920000004000CE084E4D12068C16821F080014B
:10193000C1602068C16841F04001C160F8BD206A03
:101940000088C0F308005060206A801C2062E5E730
:101950004006F3D54806F1D5D168204621F0400174
:10196000D16084F83D3000F0AFF8F8BDA31F000847
:1019700070B5040004D094F83D00002510B106E0D5
:10198000012070BD84F83C50204600F023F824204C
:1019900084F83D002068C16821F40051C1602046F0
:1019A00000F07AFB2068016921F490410161206810
:1019B000416921F02A0141612068C16841F4005168
:1019C000C1602564202084F83D0084F83E0000209A
:1019D00070BD000030B585B00024009401940294DD
:1019E00003940068184988422CD11848816941F451
:1019F00080418161816901F480410491816941F0F4
:101A0000040181618069124D00F0040004904FF4DC
:101A10000070009002200190032003906946284640
:101A2000FEF7DCFC2815CDE900046946284602943F
:101A3000FEF7D4FC002201212520FEF735FE2520EB
:101A4000FEF724FE05B030BD003801400010024012
:101A50000008014090F83E30202B0ED159B152B110
:101A600090F83C30012B08D0012380F83C30002353
:101A7000036300F06DBB0120704702207047000037
:101A80000F4930B4884219D10E48817801290ED10E
:101A90008288C16A914208D3D31D994205D2C31CE2
:101AA0008A1A00F130041B78A354491CC16205490D
:101AB000012230BCC91C0248FFF7CCBF30BC7047C4
:101AC0001C010020000000207047FEE72DE9F04FC8
:101AD00085B000243B4800940194029403948169EA
:101AE00041F010018161816901F010010491816967
:101AF00041F020018161816901F020010491816937
:101B000041F004018161816901F00401049181695E
:101B100041F00801816180692B4F00F008004FF40B
:101B200000560490002231463846FEF74CFDDFF89F
:101B30009CB04CF27009002249465846FEF743FD1E
:101B40004FF002080125CDF80C800096CDE9015434
:101B500069463846FEF742FCD0208DE83100DFF8B8
:101B600070A069465046FEF739FC1A4F2020CDE997
:101B70000007694602955046FEF730FC40F60740E4
:101B80008DE8310069465846FEF728FC0096CDE9FD
:101B9000017469465846FEF721FCCDF80090CDF857
:101BA0000C80CDE9015469465846FEF717FC002227
:101BB00011462820FEF778FD2820FEF767FD05B0C6
:101BC000BDE8F08F0010024000100140000C014001
:101BD000000801400000111010B586B0002417481D
:101BE00000940194029403940494134905940160B1
:101BF0004FF41171C0E901140521C0E903144461D7
:101C00008461FFF749F808B172B6FEE74FF48050DF
:101C1000009069460948FFF7C1F808B172B6FEE7BF
:101C2000049404A905480594FFF702F8002801D0A0
:101C300072B6FEE706B010BD002C01408C000020FB
:101C400010B58EB000240794089409940A940B945C
:101C50001C2168460C94FEF7B7FA25484FF08041E6
:101C6000C0E90014FF21C0E9024104618461FFF76B
:101C700013F808B172B6FEE74FF48050079007A939
:101C80001B48FFF78BF808B172B6FEE71848FFF75C
:101C90002DFA08B172B6FEE70B940BA914480C9408
:101CA000FEF7C6FF08B172B6FEE76020CDE900047A
:101CB0000294002269460E480494FFF7B4F908B173
:101CC00072B6FEE7042269460948FFF7ACF908B18D
:101CD00072B6FEE70C2269460548FFF7A4F908B181
:101CE00072B6FEE70248FFF779F90EB010BD0000AA
:101CF000D4000020FEE7FEE770477047FEF76EBC99
:101D000030B58FB028216846FEF75EFA14210AA884
:101D1000FEF75AFA01210804CDE9001000240294CC
:101D200002250491CDE907504FF4E0100990684670
:101D3000FEF7D8FD08B172B6FEE70F20CDE90A051F
:101D40004FF48060CDE90C400E9002210AA8FEF706
:101D5000DDFC002801D072B6FEE70FB030BD704741
:101D60000148FFF787B800008C000020F0B502683A
:101D7000164B174C174D4FF08047984205D0B8428C
:101D800003D0A04201D0A84203D122F070064A68D5
:101D90003243984205D0B84203D0A04201D0A842B5
:101DA00003D122F44074CA6822434C6922F08002B5
:101DB000224302608A68C2620A688262984201D144
:101DC0000969016301214161F0BD0000002C01405F
:101DD000000400400008004010B501F01F0301217D
:101DE000046A99408C430462016A9A40114301627B
:101DF00010BD10B5846842EA032224F47F440A43EC
:101E00002243826010BD826822F070020A4342F0D1
:101E1000070181607047000030B5026A22F00102BC
:101E20000262026A4368846924F073050C682C43DB
:101E300022F002058A682A430A4DA8420BD122F0FB
:101E40000805CA6823F440732A434D6922F004024E
:101E50001D438B692B43436084614968416302627F
:101E600030BD0000002C014030B5026A22F01002A3
:101E70000262026A436884690D6824F4E64444EA15
:101E800005248D6822F0200242EA05120B4DA8427B
:101E90000ED1CD6822F0800242EA05124D6923F48A
:101EA000406343EA85038D6922F0400243EA8503DB
:101EB0004360846149688163026230BD002C014047
:101EC00030B5026A22F480720262036A4268C46911
:101ED00023F4007324F073050C682C438D6843EAE7
:101EE00005230C4DA8420ED1CD6823F4006343EACC
:101EF00005234D6922F4405242EA05128D6923F40C
:101F0000806342EA05124260C4614968C1630362AA
:101F100030BD0000002C014030B5026A22F480522E
:101F20000262046A4268C3690D6823F4E64343EA27
:101F300005238D6824F4005444EA0534064DA84274
:101F400004D14D6922F4804242EA85124260C361A5
:101F500049680164046230BD002C014010B5036A79
:101F6000046A24F001040462846924F0F00444EA61
:101F7000021423F00A020A438461026210BD10B504
:101F8000036A23F0100303628369046A23F4704335
:101F900043EA023224F0A00343EA011182610162A4
:101FA00010BD10B5406A0021C185C184FFF736FB22
:101FB00010BD0168CA6822F49072CA6001684A695B
:101FC00022F001024A61016B012904D10168CA684B
:101FD00022F01002CA60202180F83E100021016327
:101FE000704708B590F83E10222901D0022008BDA4
:101FF00082684FF480539A4201D1016921B1816A0C
:102000009A421BD04AB10AE00268816A5268C2F360
:1020100008020A80816A891C08E0026972B10268BC
:10202000526802F07F020A70816A491C8162C18D88
:10203000491E0904090CC18503D019E002685268E1
:10204000F1E70168CA6822F02002CA600168CA6824
:1020500022F48072CA6001684A6922F001024A6172
:10206000202180F83E10016B012903D0FFF708FD05
:10207000002008BD002101630168CA6822F0100237
:10208000CA6001680A68D20602D50A6849680091E8
:10209000818DFFF7C2FAEBE770B50446006801696D
:1020A000E26821F44051114301612169A0680843AD
:1020B000616908432168CA6841F20C639A4302438C
:1020C000CA6020684169A26921F4407111434161ED
:1020D0001E492068884202D1FEF7BEFB01E0FEF7F0
:1020E000ABFB00EBC00101EB0012606864218000D3
:1020F000B2FBF0F3B3FBF1F36FF018067343B2FBDE
:10210000F0F5B2FBF0F605EB8305322303EB051582
:10211000B5FBF1F5B6FBF1F605F0F00505EB06159C
:10212000B2FBF0F6B2FBF0F0B0FBF1F06FF018028A
:10213000504306EB800003EB0010B0FBF1F0216888
:1021400000F00F002844886070BD00000038014096
:1021500081628285C28500210164222280F83E20AE
:1021600080F83C100168CA6842F48072CA60016855
:102170004A6942F001024A610068C16841F02001E9
:10218000C1600020704700000148FFF7EBBA000073
:102190001C010020FEE7000010B50A20FEF7ECF855
:1021A000044C02E00120FEF7E7F860780128F9D03E
:1021B00010BD0000000000200907090E002804DB04
:1021C00000F1E02080F80014704700F00F0000F1EB
:1021D000E02080F8141D7047FEF708FAFFF790FD25
:1021E000FFF774FC9E489D49002502C09D494FF4AD
:1021F0000057A2C0042160E804518561C561984878
:10220000FFF7B6FB08B172B6FEE7FFF7E5FCFFF794
:1022100017FD954C002240212046FEF7D4F90022FC
:1022200020212046FEF7CFF9002210212046FEF79C
:10223000CAF9E1142046FEF7C1F900287DD000203C
:10224000874E4FF480619C3E30702046FEF7B6F911
:10225000002873D00020707004212046FEF7AEF9EC
:1022600000286CD00020B07002212046FEF7A6F9AD
:10227000002865D00020F0700121A1462046FEF71D
:102280009DF900287ED00020784C307180212046B6
:10229000FEF794F9002876D0002070714021204686
:1022A000FEF78CF900286FD00020B0712021204665
:1022B000FEF784F9002868D00020F0711021204634
:1022C000FEF77CF900287DD0002030720020684C99
:1022D0000122315C21B1A38802FA00F11943A180E7
:1022E000401C0828F5DDA08800286CD0A0805C4840
:1022F0009038FEF727FD5A4800214838FEF726FFA0
:10230000574804214838FEF721FF5548082148382E
:10231000FEF71CFF52480C214838FEF717FF4FF01C
:1023200080464FF09608C6F83480C820FEF724F89F
:102330007563C6F83880C82003E04BE04CE04DE000
:102340004EE0FEF719F87563B563C6F84080C82003
:10235000FEF712F87563B5633564012210214D460E
:102360004846FEF730F9012220212846FEF72BF9D6
:10237000012240212846FEF726F93D490122C91CC9
:10238000374803E02EE02FE030E031E0FFF762FB5A
:10239000D4E9100100F039FF0646A06800F01AFFEA
:1023A000314600F093FF334900F052FEE0603248BE
:1023B000A06132482E460225E06120780128FCD138
:1023C000394601E016E017E03046FEF7F7F801283D
:1023D00036D03CE0012033E701203CE7012042E712
:1023E000012048E701204FE7012056E701205CE784
:1023F000012062E7012068E7214C4FF47A75012241
:1024000039462046FEF7DFF86420FDF7B5FF0022CD
:1024100039462046FEF7D7F86420FDF7ADFF0122CC
:1024200039462046FEF7CFF86420FDF7A5FF0022CD
:1024300039462046FEF7C7F82846FDF79DFFDEE740
:102440006FF031008111C4E91201FFF7A5FE25707C
:102450000C480021C4E91201AFE700000038014038
:102460001C01002090D00300000C01400008014036
:102470000000002000017E470AD7233C6F12833AF8
:102480000010014040420F0021F00042A2F16052D2
:10249000B2F5801F01F0004328BFD2F17F6C0BD949
:1024A0005FEA001C43EAC20242EB507018BF70475B
:1024B00028BF20F001007047B2F5801FBCBF18464E
:1024C00070474FEA410C1CF5001F02D2084600F08D
:1024D000C4BF70B500F09CFB00000089FFF7F6BF99
:1024E0004FF00040A0F580007047000010B591EA61
:1024F000030F48BF83F0004300F12884841A71EB76
:10250000030C05D2121943EB0C03001B61EB0C0109
:10251000DFF824E14FEA1154A4EB135C1EEA430FE9
:1025200018BF9EEA445F73D023EA0E03DCF1200E4D
:1025300021EA045143F4801332D322FA0CFE10EB4B
:102540000E0023FA0CFE41EB0E01CCF1200E03FA33
:102550000EFE10EB0E0051F10001B1F5801FCCF121
:10256000200E32D201EB045112FA0EF2BDE81040F7
:1025700058BF7047401C38BF5FEA420218BF70471F
:10258000002814BF20F0010041F100014FEA41038F
:1025900013F5001F38BF7047A1F1C04100F086BBA2
:1025A000012A43EB0302ACF1200CDCF11F0E32BF19
:1025B0004FF0000E23FA0CF310EB030041EB045133
:1025C000B4EB115FD0D0A1EB045101F580114908A3
:1025D0005FEA300001EB04510ED350F1000038BF28
:1025E00012FA0EFE08D1BDE81040C9E7401C38BF02
:1025F0005FEA4202CAD1C3E7BDE810404FEA410397
:1026000013F5001F38BF7047A1F1C04100F04EBB69
:102610009EEA445F08D011EA5E0FBDE8104004BF97
:1026200001F0004100207047BDE8104070B500F097
:10263000EFFA00BF64FBBE3E0000E0FF491058BF48
:10264000C1F140415B1058BFC3F140438B42EFF3EF
:10265000008070472DE9C04130B4DFF8A0C23CEAE9
:10266000111418BF3CEA131400F0EC8081EA030552
:102670001CEA111444EAD57418BF1CEA131500F0C3
:10268000C780A4EB05044FF0004545EAC12145EAA7
:10269000C32341EA505143EA525304F17F749942F3
:1026A00004F500344FEAC0204FEAC22208BF90422E
:1026B00000F09C804FEA13650FF24016765D4FEAFA
:1026C000134506FB05F7C7F1807706FB07F74FEACE
:1026D000D737A7FB03687642C8F58038A7FB06CE3C
:1026E00038BFA8F1010807FB08E64FF0000EA6FB73
:1026F000028CE6FB03CEDCF1000CCEF1004E38BFBD
:10270000AEF1010EA6FB0C584FF000074FF000058C
:10271000E6FB0E87A1FB08C6A0FB07CE16EB0E0654
:1027200045F10005E1FB076515F1E04E7EBFA4F51C
:1027300080345FEA46066D4116F1800745F10005D9
:102740004FEA17274FEA066647EA0567A6F1DE4615
:10275000B6F1805F4FEA15251FD9384624F0010CE9
:1027600005EBC471BCF1FE6F01EB0C1102D8F0BC9B
:10277000BDE8008124425CBF01F5801E9EEAC47F53
:1027800002D4F0BCBDE80081244238D4F0BCA1F1F1
:10279000C041BDE8004100F089BA4FEAD22242EAC6
:1027A00043524FEAD323A7FB02864FEAD02040EAE8
:1027B000415007FB03661EEA0E0F4FEAD12105FBCD
:1027C000026658BFA6EB0056B6EB00564FEA520E13
:1027D0004EEAC37E18EB0E0E56EB530EBDD518EB2A
:1027E00002085E417F1C55F10005B6E74FF48015E5
:1027F0004FF000074FF000064FF00008ADE7F0BCC7
:102800004FF0000001F1C04101F00041BDE800813E
:1028100011EA0C1F0CEA131500D00CE013EA0C1F90
:1028200000F025804FF00000F0BC81EA030101F0C8
:102830000041BDE80081F0BCBDE8004181EA030130
:1028400000F034BAF0BCBDE8004170B500F0E0F92A
:10285000097EFC3E00F007B881EA03014FF000005A
:1028600001F00041704781EA030100F01FBAF0BC9B
:10287000BDE800414FF0000021497047FFFDFBF922
:10288000F7F5F4F2F0EEEDEBE9E8E6E4E3E1E0DEA3
:10289000DDDBDAD8D7D5D4D3D1D0CFCDCCCBCAC815
:1028A000C7C6C5C4C2C1C0BFBEBDBCBBBAB9B8B73C
:1028B000B6B5B4B3B2B1B0AFAEADACABAAA9A8A82F
:1028C000A7A6A5A4A3A3A2A1A09F9F9E9D9C9C9BFD
:1028D0009A999998979796959594939392919190A8
:1028E0008F8F8E8E8D8C8C8B8B8A89898888878739
:1028F0008685858484838382828181800000FF07AE
:102900000000F87F51EA030C17D41CF5801F58BF54
:10291000BCF5801F00F10680994218BF704708BFC0
:102920009042704707D711F5801F58BF13F5801FDD
:1029300019D499427047894270471CF5801F08D509
:10294000BCF5801FF7D58B4218BF704708BF824285
:1029500070474FF4001C1CEB410F38BF1CEB430FBA
:1029600001D28B42704770B500F052F992244900B1
:102970004FF000514FF08053FFF760BE7FEAE172E5
:1029800002D1101A62EB0101B1FA81F30B3B24D39F
:10299000994012D1B0FA80F310FA03F108BF7047E2
:1029A000C3F11D0303F5406303EBC2234FEAD122B9
:1029B0004FEA415002EB03517047C3F1200C20FA5B
:1029C0000CFC9840C3F1320303F5406303EBC223D0
:1029D00041EA0C0101EB0351704710B5C3F1320C11
:1029E000C3F10004C4F1200E0CF5406C0CEBC222C4
:1029F00001FA0EFC21FA04F100FA0EF3E040BDE802
:102A0000104040EA0C0001EB025138BF7047401CF7
:102A100041F100015B0008BF20F001007047B0FAEF
:102A200080F310FA03F10AD0C3F11D0303F58063AC
:102A30004FEA41504FEA035202EBD12170474FF069
:102A40000000704751EA030C17D41CF5801F58BFD3
:102A5000BCF5801F00F10680994218BF704708BF7F
:102A60009042704707D711F5801F58BF13F5801F9C
:102A700019D499427047894270471CF5801F08D5C8
:102A8000BCF5801FF7D58B4218BF704708BF824244
:102A900070474FF4001C1CEB410F38BF1CEB430F79
:102AA00001D28B42704770B500F0B2F89224490011
:102AB0004FF000514FF08053FFF7C0BDDFF848C121
:102AC00070B51CEA111E1EBF1CEA13159EEA0C0FFE
:102AD00095EA0C0F00F06F8081EA030423EA4C139F
:102AE0004EEAD47E21EA4C1141F4801143F4801364
:102AF000AE44A1FB024CA0FB0365AEF17F7E36190C
:102B000055EB0C05A1FB034C4CF10003A0FB021C90
:102B100016EB0C06654153F10003094218BF46F05D
:102B2000010613F4007F0BD14FEA03314FEA053061
:102B3000340341EA155140EA16506FF003020AE0EF
:102B40004FEAC3214FEAC520F40241EA555140EA59
:102B500056506FF0020202EB2E4201EB025585EA5D
:102B6000CE710AD05FEA440C18BF24F0004450F143
:102B7000000041F1000120EAD47040F2FE7C624581
:102B800000D270BDA84214BF4FF080444FF04044C3
:102B9000002E08BF0024BEF1806FA8BFA1F1C04184
:102BA000BDE8704080F282804FF0000001F1C0412A
:102BB00001F0004170479EEA0C0F0CEA131518BF94
:102BC00095EA0C0F06D04FF0000081EA030E0EF0DC
:102BD000004170BD00F01CF88900013E00F007B80C
:102BE00000F009B84FEA430C5FEA5C5C08D081EA68
:102BF000030100F05BB84FEA410C5FEA5C5CF6D180
:102C00004FF00000014970470000FF070000F87F07
:102C10000EF1020E2EF0030E5EF8046B364205D460
:102C2000012A43EB030515F5001F12D8012841EBDB
:102C3000010C1CF5001F0CD80ED14FEAD17C15F504
:102C4000001F0CEB4C0C0CF1020C08BF4CEBD37CBE
:102C500004E04FF0080C01E04FEAD37C0CEB4C058C
:102C600026FA05F606F00706B6F1040C06D20EEBBE
:102C7000860CBDE870404CF0010C6047DFE80CF0BA
:102C8000090B02024FF000414FF00000A1F50021B6
:102C900070BD19461046012851EB010418BFD4F548
:102CA000001484BF002001F0004170BD0808A0F5A9
:102CB00000114FEA3101704753EA010C17D41CF59B
:102CC000801F58BFBCF5801F00F106808B4218BFE3
:102CD000704708BF8242704707D713F5801F58BF5F
:102CE00011F5801F19D48B4270479B4270471CF529
:102CF000801F08D5BCF5801FF7D5994218BF7047D3
:102D000008BF904270474FF4001C1CEB430F38BFC4
:102D10001CEB410F01D2994270470FB40CBC03BCAD
:102D2000FFF7C1BE91EA030F10B581F000413FF5F6
:102D3000E5AB83F0004300F009B8000010B591EA5C
:102D4000030F48BF83F000433FF5D8AB841A71EB03
:102D5000030C07D212198CF0004C43EB0C03001B40
:102D600061EB0C01DFF8A4E14FEA1154A4EB135C12
:102D70001EEA430F18BF9EEA445F00F0B08023EACA
:102D80006E03524221EA0451C3EB6E0338BF5B1E4F
:102D9000DCF1200E25D322FA0CFE10EB0E0043FAD4
:102DA0000CFE41EB0E01CCF1200E03FA0EFE10EBEF
:102DB0000E0051F10001CCF1200E29D412FA0EF2CE
:102DC00001EB0451BDE8104058BF7047401C1CBFC8
:102DD000B2F1004F704700280CBF491C20F00100E1
:102DE000704712EB020E43EB030218BF4FF0010EC7
:102DF0004EEA4202ACF1200CDCF11E0E54D943FA2B
:102E00000CFE10EB0E0051F1FF31CCF11E0ED5D5AA
:102E10000EF1010E12FA0EFE404141EB010101EBF1
:102E2000445C5FEA5C5C10D910EBDE7001EB04518E
:102E300038BFBEF1004FBDE8104018BF70470028F2
:102E40000CBF491C20F00100704730D24FEAD42C4F
:102E500011F5001124F400641BD0B1FA81F20B3A91
:102E6000A41AA41ED2F12003914030FA03F31943AF
:102E7000904001EBCC71002C01EB0451BDE81040F7
:102E8000A8BF704701F1C0414FF0000001F00041C0
:102E90007047B0FA80F310FA03F100D110BDE41AC4
:102EA000173C4805C90AE4E701EB045110BD49107D
:102EB00001EB0451BDE810404FEA300002E04FF052
:102EC000000170474A0008BF0042F8D0B2F5001F69
:102ED00028BF704701F000414FF0000070479EEAA4
:102EE000445F07D011EA5E0FBDE8104004BF002127
:102EF00000207047BDE8104070B5FFF789FE00BFA5
:102F000040DFF63E83F00041104670470000E0FFCE
:102F100043004FEAD30C4FEA3C0C43401FBF40072D
:102F20000CF1605113F0FE4F70471CF0006F03D19D
:102F300000200CF0004170470CF0004343EA507051
:102F400010B540EACC0000F042FA00BF0000009249
:102F50004FEA0001FFF7AABE4FF000414FF000001A
:102F6000A1F500217047000090EA010F48BF81F0F1
:102F7000004100F17E82421A3CBF801A89184FEA54
:102F8000D0524FF07F4C1CEA410FA2EBD15318BF37
:102F90009CEA026F00F03B804FF0004C4CEA0020AE
:102FA0004CEA012121FA03FC10EB0C0C1ED202F1B9
:102FB000FF325FEA1C2040EBC25038BF70471CF064
:102FC0007F0F4FEA400C18BFBCF17F4F38BF7047EE
:102FD000C3F12003994008BF20F00100BCF17F4FEE
:102FE00038BF7047A0F1C04000F037BA4FEA3C004C
:102FF000000A40EBC25028BF1CF0FF0F4FEA400C04
:10300000E6D018BFBCF17F4F38BF7047EAE79CEAB3
:10301000026F05D010EA5C0F08BF00F00040704757
:1030200010B500F0D4F900BF64FBBE3E014800F0CB
:10303000D2BA00BF0000C07F401058BFC0F140406E
:10304000491058BFC1F140418142EFF30080704701
:103050004FF47F0C1CEAD0121EBF1CEAD11392EA77
:103060000C0F93EA0C0F00F0858090EA010F48BF27
:1030700042F4807240F4000C41F400002CF07F41D7
:1030800020F07F4000B58142A2EB03020FF2081C42
:10309000ACEB504EC0F100009EF800E04FEA4E0E3F
:1030A00000FB0EFC38BF49004FEA2C1C02F5FA0267
:1030B0000CFB0EF34FEACE1E4FEA112C4FEAC12152
:1030C0000EEB635E42EB22420EFB0CFC4FEA1C53FC
:1030D00000FB03114FEA112C4FEA01310EFB0CFCEF
:1030E0004FEADC4C00FB0C11C14228BF09184CEB25
:1030F00003335DF804EB10EB410143EBC250B2F532
:103100007C0F38BF704729D512F0F00F1CBF00F1BB
:10311000C04000F00040704700818283848586872C
:1031200088898B8C8D8E8F919293959697999A9C86
:103130009D9FA0A2A3A5A7A8AAACAEB0B2B3B5B7F5
:10314000B9BCBEC0C2C5C7C9CCCED1D4D7D9DCDFCB
:10315000E2E6E9ECF0F3F7FAFE0000004FEA400C7B
:103160000CF1807CBCF17E4F28BF7047B0F1C040AD
:1031700000F073B990EA010F0CEAD11348BF42F492
:103180008072624538BF634507D213F47F0F16D0B3
:1031900080EA010000F00040704710B500F017F918
:1031A000097EFC3E00F005B880EA010000F0004016
:1031B000704780EA010000F0004000F04EB912F4C0
:1031C0007F0F04BF0248704780EA010000F045B954
:1031D0000000C07F10F0004148BF4042B0FA80F3C9
:1031E00010FA03F2C3F19D030BD051EAC35101EB76
:1031F0001220530638BF704700F1010008BF20F0CD
:10320000010070474FF07E5209E011F0004204D5F2
:103210004042C1F1000138BF491E42F07E520B000E
:1032200002F1706212BF20235FEA00017047B1FA19
:1032300081FCA3EB0C0301FA0CF120FA03FC02EB76
:10324000C352C3F1200341EA0C0110FA03FC5CEA0B
:10325000416C42EB112018BF5FF0806C28BF20F05A
:103260000100704750EA010C00F113801CF5000FBB
:1032700058BFBCF5000F01D48842704707D710F53E
:10328000000F58BF11F5000F15D4884270478942CE
:1032900070471CF5000F04D5BCF5000FF7D581422F
:1032A00070474FF0807C1CEB400F38BF1CEB410F88
:1032B00001D28142704710B500F089F8922449008C
:1032C0004FF000504FF08051FFF7B6BE4FF47F0C27
:1032D0001CEAD0121EBF1CEAD11392EA0C0F93EA2B
:1032E0000C0F00F0478090EA010F48BF42F4807253
:1032F0004FF0004C4CEA00204CEA012102EB0302A3
:10330000A0FB0113A2F50002002918BF43F001033E
:103310005B0028BF4FEA330342EB22425FEA132CE3
:103320004CEBC2502EBFBCEB436FB2F57C0F704725
:103330004FEA036CBCF1004F08BF20F00100B2F56A
:103340007C0F38BF70470BD582F0FF0212F5803F2B
:10335000C8BF704700F1C040D8BF00F000407047C0
:1033600000F5000C5FEA4C0C48BF7047B0F1C0405C
:1033700000F073B890EA010F0CEAD11348BF42F491
:103380008072624538BF634504D280EA010000F0D4
:103390000040704710B500F01AF800BF8900013EE8
:1033A00000F007B800F009B85FEA410C5FEA1C6C56
:1033B00008D080EA010000F050B85FEA400C5FEAF4
:1033C0001C6CF6D14FF00040A0F5800070470EF164
:1033D000020E2EF0030E5EF8044B244204D44FEA92
:1033E0004102B2F17F4F11D84FEA4003B3F17F4F52
:1033F0000CD80ED14FEAD07CB2F17F4F0CEB4C0CC5
:103400000CF1020C08BF4CEBD17C04E04FF0080C2F
:1034100001E04FEAD17C0CEB4C0324FA03F404F0F6
:103420000704B4F1040C06D20EEB840CBDE8104086
:103430004CF0010C6047DFE80CF0070802024FF087
:103440000040A0F5800010BD0846420018BFD2F130
:10345000807288BF00F0004010BDFF2141EAD050CB
:10346000C005704790EA010F48BF81F000413FF569
:1034700082AD421A04D882F00042A0EB020011444F
:103480004FEAD0524FF07F4C1CEA410FA2EBD153D0
:1034900018BF9CEA026F4AD04FF0004C4CEA002063
:1034A0004CEA012121FA03FCB0EB0C0C0FD412F012
:1034B000FE0F36D05FEA4C001DD5001240EBC25023
:1034C00038BF70471CF03F0F18BF70470BE0A2F1E8
:1034D00001025FEA1C2040EBC25038BF70471CF06D
:1034E0007F0F18BF7047C3F12003994014BF401EDF
:1034F00020F00100704780084FEA122308BF704790
:10350000B0FA80FCA2EB0C02CCF1280C60FA0CF0B3
:1035100093EA122F04BF00EBC25070474FEAC3700A
:103520007047130A5FEADC1008BF7047F6E79CEAB1
:10353000026F04D010EA5C0F08BF0020704710B57E
:10354000FFF745FF40DFF63E81F000407047000086
:10355000C2154FEA002318BF43F0004300F110806A
:10356000D2F1BE0240F2288023FA02F1B2F1200C1F
:103570002EBF23FA0CF0C2F1200C03FA0CF07047B6
:10358000B0F15F4F00F2188012F0FF0208BF23F085
:103590000043C2F1BE0223FA02F1B2F1200C2EBFA9
:1035A00023FA0CF0C2F1200C03FA0CF04042C1F1F6
:1035B000000138BF491E704710B5FFF708FF00BF74
:1035C0009224498000204FF0000170476FEAE070BC
:1035D00080F0004170470CF00F03092B08BF082052
:1035E00000F051800A2B0BD0082B18BF704708BF82
:1035F0001CF0400F0AD04FF000004FF00001704760
:103600001CF0400F18BF4FF0004070471CF0100F27
:1036100008D020F0704300F07F4242EAD3014FEA25
:103620004370704700F0604021F07F4242EA0002A0
:1036300001F07F4040EA727070474FF0FF0212EADB
:10364000D0521CBF92F0FF038B42C2BFD14200EBAD
:10365000C1507047002A0AD0002B0BD0002900F07F
:103660000040A4BF40F0FE4040F40000704700F06E
:103670000040704743024FF00B0C18BF4CF0806CB9
:103680007FF4D4AC70471CF4801F11D01CF4E02FE1
:1036900003D06FEACC31490070474FF04050EFF350
:1036A000008222F0704242EA000282F300887047F2
:1036B0004FF0000070470000000000000000010211
:1036C00003040607080900000000010203040000CB
:1036D000F0360008000000208000000028010008EB
:1036E00070370008800000204007000044010008F7
:1036F0000000000000000000800C0000000000003E
:1037000000000000000000000000000017B7513961
:1037100000000000000000000000000000000000A9
:103720000000000000000000000000000000000099
:10373000FF0000000000000000000000000000008A
:103740000000000000000000000000000000000079
:103750000000000000000000000000000000000069
:103760000100000010000000000000000024F40030
:04000005080000ED02
:00000001FF
